:040000050800C0ED42
:020000040800F2
:10C00000784E002059C2000861C2000893E600087B
:10C0100065C2000867C2000869C2000806FFFAAFDF
:10C020008F9E939B08999697020100006DC10008AE
:10C030006DC2000800A20108F5C1000845C2000851
:10C0400073C2000873C2000873C2000873C20008FC
:10C0500073C2000873C2000873C2000873C20008EC
:10C0600073C2000873C2000873C200083DD1000803
:10C0700059D1000875D1000899D10008BDD1000838
:10C08000D9D10008F5D1000873C2000873C20008B6
:10C09000052D010873C2000873C2000873C20008AE
:10C0A00073C2000873C2000873C2000873C200089C
:10C0B00073C2000873C2000873C2000873C200088C
:10C0C00073C2000873C2000873C2000873C200087C
:10C0D00073C200087DF8000821F9000873C2000847
:10C0E00073C2000873C2000873C20008DFF810D0E2
:10C0F00000F036F900480047A94B0108AFF3008073
:10C10000784E002080F309887047EFF3098070476C
:10C11000684680F3098804480078C00714BF0220ED
:10C12000032080F314887047DCA10108DFF818C0F1
:10C13000EFF305831B0618BF6047EFF31483DB079B
:10C1400008BF604700DF7047F95B0108DFF818C0DF
:10C15000EFF305831B0618BF6047EFF31483DB077B
:10C1600008BF604700DF7047055E0108EFF30980F4
:10C17000816911F8021C39BB90E80F10E047EFF31A
:10C18000098C194B93E80600914218D059B10CB4B0
:10C190004FF0010381F821302CE9F00FC1F824C0E1
:10C1A0000AF0C4F80CBC1A60D2F824C0BCE8F00F46
:10C1B00092F821308CF309881BB192F82000CCF85A
:10C1C00000006FF0020E704710B5084A12689142E5
:10C1D00009D8074C54F8214090E80F10A047EFF31E
:10C1E000098C8CE80F0010BD38030020DCC3000868
:10C1F000DCC3000809F086FF114B93E8060091426A
:10C200001BD00CB44FF0000381F82130EFF3098C00
:10C210002CE9F00FC1F824C00AF088F80CBC1A60B1
:10C22000D2F824C0BCE8F00F8CF3098892F82130D2
:10C230001BB192F82030CCF800306FF0020E70473E
:10C24000380300200AF034F9D6E7000008F02EFF8A
:10C250000AF02EF9D0E7000006488047064800475C
:10C26000FEE7FEE7FEE7FEE7FEE7FEE7FEE7FEE7A6
:10C27000FEE7FEE74DF40008EDC00008202A04DBCD
:10C28000203A21FA02F00021704721FA02F3D0404F
:10C29000C2F12002914008431946704710B5431A75
:10C2A000934209D28318881803E010F8011D03F89F
:10C2B000011D521EF9D210BD40EA01039B0703D0B5
:10C2C00009E008C9121F08C0042AFAD203E011F8D5
:10C2D000013B00F8013B521EF9D210BDD2B201E081
:10C2E00000F8012B491EFBD270470022F6E710B57B
:10C2F00013460A4604461946FFF7F0FF204610BDD4
:10C30000421E12F8013F002BFBD111F8013B02F84D
:10C31000013B002BF9D17047421C10F8011B00298A
:10C32000FBD1801A704730B504460020034600E078
:10C330005B1C934203D2E05CCD5C401BF8D030BD67
:10C3400030B505460020034600E05B1C934205D251
:10C35000EC5CC85C201A01D1002CF6D130BD000085
:10C36000064C074D06E0E06840F0010394E8070042
:10C3700098471034AC42F6D3FFF7BCFE34AF010847
:10C3800054AF010870B58C1810F8015B15F0070365
:10C3900001D110F8013B2A1106D110F8012B03E05E
:10C3A00010F8016B01F8016B5B1EF9D12B0705D466
:10C3B0000023521E0DD401F8013BFAE710F8013BAF
:10C3C000CB1A921C03E013F8015B01F8015B521ECB
:10C3D000F9D5A142D8D3002070BD000000000000B4
:10C3E0002DE9F04102787F2A03D0BDE8F04100F04A
:10C3F0008FB801F8012B447801F8014B861C0D46DB
:10C400004FF0021708E02946304600F081F8074453
:10C4100006EB104680B20544641EF4D23846BDE8EF
:10C42000F081000070B500240B462146092841D058
:10C430000ADC304A092811695AD2DFE800F059595C
:10C4400015181C23282E31000422FC2850D004DCAF
:10C45000F02835D0F1284BD135E0FD283AD0FE2820
:10C4600044D0FF2844D13CE0184623A11CE01C46E0
:10C4700008F0E8F921E00624224624491846FFF78F
:10C480000DFF35E0184699B1D1F8A41103E0184624
:10C4900071B1D1F8A81139B90AE01846D16FFAE79D
:10C4A0001846D2F88010F6E709F08CFB04461FE02E
:10C4B00000241DE01C4608F0CDF901462046F3E7B4
:10C4C0003520187013E01970A22058704A20987017
:10C4D000DA7004E01970202058709970D970042423
:10C4E00006E0402018705970022401E01A700124FF
:10C4F000204670BD00A201084441504C696E6B207B
:10C50000434D5349532D4441500000009A9901086E
:10C510002DE9F84F0278A2F180031F2B03D800F019
:10C5200071F9BDE8F88FA2F1A0035E2B02D800F0EC
:10C5300001FAF6E701F8012B0C4610F801CB0025B3
:10C540000127FF21A74BA84ADFF8A092DFF8A0A29D
:10C550004FF00116BCF11F0F74D2DFE80CF0101879
:10C560002A50C3CCF073EE64747373737373787C66
:10C570008B9BA8BEC1EDECEBEAE9E8A4E7000078EC
:10C58000611CFFF74FFF207000F10210C9E702782D
:10C5900022B1012A54D0217018461CE14078C1070D
:10C5A0004FF4007001D0934901E09249091F0860DF
:10C5B00046E0057825B1012D03D00025257057E010
:10C5C0000125B84617700D21484608F06BFF874FCC
:10C5D0004FF40050103738600E21484608F062FFD3
:10C5E0004FF48040386001220C21484608F008FFD3
:10C5F0000021484608F088FFC7F80080DEE7157084
:10C6000000220D214E46484608F0FAFE00220E2177
:10C61000304608F0F5FE00220C21304608F0F0FE0E
:10C6200025703846D7E001887348744A0068B0FB2B
:10C63000F2F00322801CB0FBF2F04843401EFDD113
:10C640002570A9E7CAE0657025700220C3E0214685
:10C6500000F070FCBFE086780388C07866F31F4363
:10C66000674E53EA00603BD0906002F09DFEA5E764
:10C670003046B0E010F8016B0EB94FF480760146F9
:10C68000304602F07FFCF61D2570F008000400F132
:10C690000110A0E0007800F00301491C1177C0F3FD
:10C6A000800050778AE7214600F096F993E02170E8
:10C6B0000122144610F8013B0AE010F8011B11F0AA
:10C6C0003F0100D14021C91DC9080A440844521C39
:10C6D0005B1EF2D244EA02407DE000782170D5E78B
:10C6E0002170C5E701781174B0F801109182B0F89B
:10C6F0000300D08252E012782146012A13D0064668
:10C70000401C10F8012B42B110F8013B9C0701D5E9
:10C71000DB0600D5001D521EF6D1801B0D700004F3
:10C720004D70801C57E000F0A1F954E04CE04FE060
:10C7300046E041E03CE037E032E01CE0FFE706463F
:10C7400010782146012809D00D704D70A570032185
:10C75000F078800707D541F480203CE0304600F0B7
:10C7600051FB0146F4E7B6F801004FF4802202EBDA
:10C77000804008432FE01278012A02D021705046F1
:10C7800029E0C278B0F80110007962F31F4141EA54
:10C79000006000906946002002F078F82570EEE70E
:10C7A000214602F0E5FD16E0214602F081FD12E08F
:10C7B000214602F01BFC0EE0214602F089FC0AE053
:10C7C000204602F0C3FD06E0214602F025FD02E00E
:10C7D000214602F0D5FC00F10110A2E604F8011C8C
:10C7E00030469EE60100020078040020000C014063
:10C7F00001000500140801405801002040420F00CC
:10C80000010004002DE9FC47027801F8012B0D46D8
:10C810004FF0011410F8011B002267008039064612
:10C820004FF0010804F101090E2975D2DFE801F08B
:10C8300007141F2E3C74747447535D62667708F0CA
:10C8400001F80646FFF768FDC4B22C70681C22464A
:10C850003146FFF723FD23E00724684604F0FCF986
:10C86000224669462846FFF719FD304C54E06846D9
:10C8700004F0F2F930680090684604F00DFA0020E8
:10C8800004F080FA85F80080294C45E03E21681CC0
:10C890000BF0FEFC040002D0012008F09BF92C7084
:10C8A00004F58034A41C37E03778701C39460BF04F
:10C8B00093FD012008F08EF985F8008028E085F8C6
:10C8C0000080307820B1012802D02A703C4623E055
:10C8D00008F002FBFAE785F8008006F0B5FC10B915
:10C8E00002200BF0CDF94C4616E030780AF090F8B3
:10C8F0002870EBE70AF05AF82870F4E716F8017B85
:10C90000012008F077F9394630460AF023F92870FB
:10C9100004EB074404F101142046BDE8FC872A70AB
:10C92000307800B1012007F0E7FCCFE709000100F3
:10C9300002000500FF2008704FF001107047000052
:10C9400038B52248816941F004018161816901F0B3
:10C9500004010091816941F008018161816901F060
:10C9600008010091816941F010018161816901F044
:10C9700010010091816941F0200181618069144DAD
:10C9800000F0200000900D21284608F08BFD104C8F
:10C990006814103420600E21284608F083FD4FF4FF
:10C9A0008040206001220C21284608F029FD00214A
:10C9B000284608F0A9FD012020600921054808F05B
:10C9C00071FD044960151031086038BD0010024047
:10C9D000000C0140000801402DE9F05F002201F841
:10C9E000012B012510F8018B8A46A94604464FF415
:10C9F000804B32E014F8017B17F03F0000D140205B
:10CA0000C01DC608380608D500220E21164808F0B9
:10CA1000F7FC15495846103106E00E21124808F07F
:10CA200041FD1149584614310860524621463846A6
:10CA300001F0BCFEB8F1000F07D10E210A4808F042
:10CA400031FD09491431C1F800B0380602D5B244AD
:10CA5000B14401E0344435446D1CB8F10108C9D239
:10CA600049EA0540BDE8F09F000C01402DE9F04F78
:10CA700087B0054605900020DFF880A3CDE90101CD
:10CA80008C1C8AF8000003906978AD1C07465FEAA9
:10CA9000010871D015F8016BB1076ED5F7B3DFF857
:10CAA00060B306F011000128BBF8149007D0574678
:10CAB00069460E2001F0EAFE02280ED013E0694616
:10CAC000304601F0E3FE02280ED1B9F1010903D38B
:10CAD0009AF800100029F2D040E1B9F1010902D31F
:10CAE00039780029E4D000270128F5D1009904F80D
:10CAF000011B0099090A04F8011B0099090C04F8AC
:10CB0000021B0099090E04F8011C3FB131060ED535
:10CB1000DBF80C1004F8011B0A0A00E007E004F837
:10CB2000012B0A0C04F8022B090E04F8011CF10673
:10CB300052D5A97835F8030B61F31F4015F8011B96
:10CB400040EA01600490AE48B0F816B0F00715D086
:10CB5000AB48B0F814900021304601F097FE02284F
:10CB600002D00128B8D109E0B9F10109B4D39AF88B
:10CB700000100029EFD0F1E011E187E0A048B0F803
:10CB800014906946304601F081FE022802D0012847
:10CB900016D107E0B9F1010912D39AF80010002963
:10CBA000EFD00DE09649009A89691140049A9142AC
:10CBB00006D0BBF1010B03D39AF800100029DDD099
:10CBC0008F49009A89691140049A914201D040F03E
:10CBD0001000012817D157E0DFF824B2F107BBF8A5
:10CBE000149022D007BB0021304601F04FFE0228EE
:10CBF00002D0012807D107E0B9F1010903D39AF85F
:10CC000000100029EFD0A9E031060CD5DBF80C109C
:10CC100004F8011B0A0A04F8012B0A0C04F8022B81
:10CC2000090E04F8011C01272EE06946304601F088
:10CC30002DFE022802D0012807D107E0B9F1010931
:10CC400003D39AF800100029EFD087E031060CD505
:10CC5000DBF80C1004F8011B0A0A04F8012B0A0C7B
:10CC600004F8022B090E04F8011C009904F8011BBA
:10CC70000099090A04F8011B0099090C04F8021B29
:10CC80000099090E04F8011C002159E01FB35C480B
:10CC9000B0F8149069460E2001F0F8FD022802D089
:10CCA00001285BD107E0B9F1010957D39AF80010C8
:10CCB0000029EFD052E0009804F8010B0098000A18
:10CCC00004F8010B0098000C04F8020B0098000E09
:10CCD00004F8010C0027A97835F8030B61F31F4015
:10CCE00015F8011B40EA01600090B10603D54449E4
:10CCF0008861012025E0DFF808B1BBF8149069468F
:10CD0000304601F0C3FD022802D0012826D107E0F9
:10CD1000B9F1010922D39AF800100029EFD01DE0E3
:10CD200031060CD5DBF80C1004F8011B0A0A04F8D4
:10CD3000012B0A0C04F8022B090E04F8011C012136
:10CD400003910199491C01919AF8001031B9A8F199
:10CD500001015FEA01087FF49DAE0CE0B8F1000F1D
:10CD600009D015F8011B8A0701D5C90600D52D1D6C
:10CD7000A8F10108F2E7012832D10FB32048574645
:10CD8000868A69460E2001F081FD022802D0012822
:10CD900026D105E0761E23D339780029F1D01FE093
:10CDA000009904F8011B0099090A04F8011B009975
:10CDB000090C04F8021B0099090E04F8011C0FE08D
:10CDC000039969B10E485746868A00210E2001F06A
:10CDD0005DFD022804D1761E02D339780029F4D0F3
:10CDE000DDE901121170029948700298211A059824
:10CDF00007B0281A41EA0040BDE8F08F000000208B
:10CE0000780400202DE9F84F0026DFF82081054640
:10CE100030468A46CF1C88F80060B5F80140ED1C0A
:10CE2000002C77D015F8019BDFF804B15FEA897117
:10CE30005FD55FEAC97139D0BBF81450002148466C
:10CE400001F024FD022802D0012863D12EE06D1EDE
:10CE500060D398F800100029F0D05BE024B95FEAB5
:10CE6000C97001D04FF00E09BBF81450694648460E
:10CE700001F00CFD022802D001284BD106E06D1E06
:10CE800048D398F800100029F0D043E0009907F843
:10CE9000011B0099090A07F8011B0099090C07F802
:10CEA000021B0099090E07F8011C761C641ED5D2DE
:10CEB00030E0A97835F8030B61F31F4015F8011B2A
:10CEC00040EA016000901A48B0F81480694648466C
:10CED00001F0DCFC022802D001281BD107E0B8F1E8
:10CEE000010817D39BF800100029EFD012E0761C40
:10CEF00000E0C346641EDCD20D485D46848A0021F2
:10CF00000E2001F0C3FC022804D1641E02D329784C
:10CF10000029F4D08AF80060320A8AF801208AF8E1
:10CF20000200A7EB0A00BDE8F88F00000000002017
:10CF3000780400202DE9F84F8B4605784478027973
:10CF40004188407962F31F4141EA00663A49E207AD
:10CF500001F1040006D0EB074FF4005201D00A6043
:10CF600000E00260A20706D5AB074FF4804201D56E
:10CF70000A6000E0026022060ED5EA09D3074FF0EE
:10CF8000010201D00A6007E002602C4800900422F0
:10CF900069462B480AF006FCDFF89CA04FF0000918
:10CFA000AAF1040AAAF1040896B32648864200D9D9
:10CFB000064606EBC600C70002F07EFA0646E0070A
:10CFC00005D0DAF80000C0F34030A8421BD1A0071A
:10CFD00006D5D8F80000C0F30030B0EB550F12D1E1
:10CFE000600702D5B9EB950F0DD1A00602D5B9EBBC
:10CFF000551F08D120060BD5D8F8000000F001001D
:10D00000B0EBD51F04D002F057FA801BB842D6D33C
:10D01000DAF80000D8F80020C0F34031C2F3003243
:10D02000D8F8000041EA420141EAC0108BF8000044
:10D030000548BDE8F88F0000100C01400400FA0517
:10D040000CED00E0C0C62D0001000600094910B536
:10D0500000220A70084888600A7464238B82CA829E
:10D0600001238A610B774A7702F09EF9BDE81040F0
:10D07000FFF766BC78040020404B4C0070B50446B6
:10D08000D0F808011D460E4600282AD0402A00DDAF
:10D090004022401EC4F80801D4F8100104EB8010AF
:10D0A000FFF7FCF8D4F8100104EB80113046FFF7CD
:10D0B00097F9D4F8101104EB4101A1F80001D4F85C
:10D0C000100104EB8010286094F81001401C00F05F
:10D0D0000300C4F81001D4F80C01401CC4F80C0182
:10D0E000012070BDD0F80C31E3B15B1EC0F80C31EB
:10D0F000D0F8143100EB83130B60D0F8141100EB5F
:10D100004101B1F80011116090F81411491C01F0AF
:10D110000301C0F81411D0F80811491CC0F8081117
:10D1200001207047002070470022C0F81021042120
:10D13000C0F81421C0E9421270477047044910B585
:10D14000086800F00F004860FFF7F7FF10BD00000F
:10D150000000024070470000044910B50868C0F3A1
:10D16000031002014A60FFF7F5FF10BD0000024006
:10D1700070470000044910B50868C0F3032002029C
:10D180004A60FFF7F5FF10BD00000240014803F0C0
:10D1900039BB0000E8A30108044910B50868C0F3D2
:10D1A000033002034A60FFF7F1FF10BD00000240A8
:10D1B000014803F0F1B90000E8A30108044910B5E3
:10D1C0000868C0F3034002044A60FFF7F1FF10BD96
:10D1D0000000024070470000044910B50868C0F321
:10D1E000035002054A60FFF7F5FF10BD0000024042
:10D1F00070470000044910B50868C0F303600206D8
:10D200004A60FFF7F5FF10BD0000024010B50C4664
:10D21000012825D12A48416941F0010141610022DC
:10D220002848082C16D2DFE804F015040C1C252E23
:10D23000374082600F2141600B2005F0B7FD0B20C5
:10D2400006E0C261F02141600C2005F0AFFD0C202A
:10D2500005F0D7FD1C490120A0400A781043087052
:10D2600010BD02634FF4706141600D2005F09EFD1A
:10D270000D20EDE742644FF4704141600E2005F04F
:10D2800095FD0E20E4E782654FF4702141600F2088
:10D2900005F08CFD0F20DBE7C2664FF470014160A2
:10D2A000102005F083FD1020D2E7C0F880204FF059
:10D2B00070614160112005F079FD1120C8E7000080
:10D2C0000010024000000240740400202DE9F041EB
:10D2D0000F4601283BD11F4E3078002837D000245C
:10D2E0001D4D082F28D2DFE807F02704090E131878
:10D2F0001D220B2005F067FDAC601DE00C2005F041
:10D3000062FDEC6118E00D2005F05DFD2C6313E07B
:10D310000E2005F058FD6C640EE00F2005F053FD63
:10D32000AC6509E0102005F04EFDEC6604E011202C
:10D3300005F049FDC5F8804001213078B9408843A7
:10D34000307004D10548416921F001014161BDE817
:10D35000F081000074040020000002400010024030
:10D3600001078A0E07490A44D2F8001C000602D5BC
:10D3700048F6CF7001E04CF68F700140C2F8001CF7
:10D3800070470000005000400207930E0C4A30B571
:10D390001344D3F8002C000648F68F7402EA040008
:10D3A00048F2800582EA010202D502F0300101E074
:10D3B00002F4405108432843C3F8000C30BD00007C
:10D3C0000050004030B585B00546002400F078FAE2
:10D3D0000120002103900091CDE9011504A96846C0
:10D3E00000F0CEF900B1012400F01EFA05B020468D
:10D3F00030BD000006490020C8610648016941F0BF
:10D4000004010161016941F04001016170470000C0
:10D41000A83A002000200240064A0021D1610649B6
:10D420000A6942F002020A614861086940F040005E
:10D4300008617047A83A002000200240044B0022F7
:10D44000DA61044A136943F00103136101807047F4
:10D45000A83A0020002002400E49C868C2060E48C3
:10D4600003D5C26942F00202C261CA68520703D5FD
:10D47000C26942F00102C261CA69D20707D0C2691B
:10D4800042F00402C261C86920F00100C8611420A2
:10D49000C860704700200240A83A002070B50446DA
:10D4A00000F00AFB0546114E09E0601C07D024B1CC
:10D4B00000F002FB401BA04201D9032070BDF068C0
:10D4C000C007F2D1F068800601D52020F060F06836
:10D4D000C00605D4F069C00702D1F068400703D543
:10D4E000FFF7BAFF012070BD002070BD0020024090
:10D4F00018B5002819D011498A69D20703D18A6961
:10D5000042F001028A61C404C0F3421100F01F021C
:10D510000B4BC0F3032001FA02F100FA02F005D52B
:10D52000DA698A4310430090D86118BD5A688A436B
:10D53000104320F0E0600090586018BD00100240D9
:10D5400000000140194A1A49904203D18869C0F38A
:10D5500080007047174A904203D18869C0F3C00029
:10D560007047154A904203D18869C0F30010704794
:10D57000124A904203D18869C0F340107047104AA4
:10D58000904203D18869C0F3801070470D4A9042E1
:10D5900003D18869C0F3C01070470B4A904203D191
:10D5A0008869C0F3002070470020704700080140E0
:10D5B00000100240000C0140001001400014014026
:10D5C00000180140001C014000200140F0B51F463A
:10D5D00016460D4604460F2901D90020F0BDFFF77D
:10D5E000B1FF18B90121204600F022F86FB90120DF
:10D5F000A840022E02D0032E03D006E0E16881434A
:10D6000002E0E16802260143E160082D01D3241DF8
:10D61000083D2168A8000F2282409143216047EA1B
:10D62000860181402068014321600120F0BD000097
:10D63000F0B5304A304B314C314D324E324FDFF87D
:10D64000CCC0DFF8CCE051B3704503D1906940F015
:10D65000040004E0984204D1906940F00800906111
:10D66000F0BDA04203D1906940F01000F7E7A84256
:10D6700003D1906940F02000F1E7B04203D19069F6
:10D6800040F04000EBE7B84203D1906940F08000E1
:10D69000E5E76045E4D1906940F48070DFE77045CC
:10D6A00003D1906920F00400D9E7984203D1906932
:10D6B00020F00800D3E7A04203D1906920F01000C9
:10D6C000CDE7A84203D1906920F02000C7E7B0421F
:10D6D00003D1906920F04000C1E7B84203D19069BE
:10D6E00020F08000BBE76045BAD1906920F48070DB
:10D6F000B5E7000000100240000C0140001001409E
:10D700000014014000180140001C014000200140AD
:10D710000008014070B50C4DE878012804D0A868D5
:10D72000E968441A204670BD00266E71A868E96851
:10D73000441AA878012802D101F0ACFD04446879AC
:10D740000028F2D1EEE7000004000020054A931DF6
:10D75000117981F001001071585CD27810430022D9
:10D760005A5470470400002031B500F0A5F9044672
:10D7700000F0A2F90099001B8842F9D338BD0000DF
:10D780002DE9F047054626480F460126017E01296E
:10D790000FD00121814601762868DFF888804CF29D
:10D7A0005034022808D0A2462046FFF777FEA8B1E1
:10D7B00031E00220BDE8F0872046FFF76FFE08BB8E
:10D7C0000120FFF717FE2046FFF768FED8F810107B
:10D7D000064621F00401C8F810101CE04FF0FF309D
:10D7E0003860AC6811E02046FFF716FE5046FFF7A0
:10D7F00055FED8F81010060021F00201C8F81010EC
:10D8000001D03C6007E004F58064D5E9020100EB3B
:10D810008120A042E7D8002189F818103046C9E7D6
:10D82000A83A0020002002400348016941F080012D
:10D830000161002070470000002002402DE9F05FE8
:10D8400005461D4888460024017E16461F460129CC
:10D8500009D00121814601764CF2503A5046FFF73B
:10D860001DFE18B123E00220BDE8F09F012D02D07B
:10D87000022D00D00425D346DFF840A015E0220198
:10D8800030463946FEF7FAFC81B208EB4400FFF758
:10D89000D5FD5846FFF702FEDAF8102022F001020B
:10D8A000CAF8102018B9641CE4B2AC42E7D30022D5
:10D8B00089F81820D8E70000A83A0020002002408C
:10D8C00005480169090605D50449416004494160DC
:10D8D0000020704701207047002002402301674567
:10D8E000AB89EFCD2DE9F84FDFF8A091002309F1C6
:10D8F000040A0AF1040B1C464FF00F080BF1040E4A
:10D9000001270A68A7403A40BA4272D1DFF880C1C5
:10D910004D68A5EB0C0665452BD00DDC032D34D0EE
:10D9200005DC35B3012D19D0022D2FD11BE0112DAF
:10D9300016D0122D2AD119E0B6F5881F19D006DCB1
:10D94000B6F5803F15D0B6F5801F1FD111E0B6F5B2
:10D95000001F0ED0B6F5041F18D10AE0CB6815E001
:10D96000CB681B1D12E0CB6808330FE0CB680C338B
:10D970000CE08B682BB1012B4FF0080303D04761FB
:10D9800004E0042302E0076100E00023FF2A01D83D
:10D99000064601E000F104064FEA840501D9A5F12D
:10D9A0002005376808FA05FC27EA0C0703FA05F595
:10D9B00047EA050737604D68ED0060D5354DAE6923
:10D9C00046F00106AE61AD6924F0030605F00105DD
:10D9D0000095314D7719BE68A5072D0F08FA05FC93
:10D9E00026EA0C06DFF8B4C0604503D14FF0000C06
:10D9F00017E044E0DFF8A8C0604502D14FF0010C09
:10DA00000FE0DFF8A0C0604502D14FF0020C08E043
:10DA1000DFF894C0604502D14FF0030C01E04FF0F5
:10DA2000040C0CFA05FC4CEA060CC7F808C04D685B
:10DA3000D9F80060ED034D4601D5164300E096434A
:10DA40002E604D68DAF80060AD03554601D51643E7
:10DA500000E096432E604D68DBF80060ED025D4605
:10DA600001D5164300E096432E604D68DEF8006055
:10DA7000AD02754601D5164300E096432E60641C46
:10DA8000102CFFF43DAFBDE8F88F0000000401400A
:10DA90000000111000100240000001400008014089
:10DAA000000C014000100140001401400AB1016166
:10DAB00070470904FBE70000EFF3108172B60748D6
:10DAC0000068406A064B82081868121AC2F30D02F9
:10DAD000104481F310881860704700006C3A0020F1
:10DAE00054010020074810B5016841F010010160A1
:10DAF000032000F05DF80F2000F006F800F056F863
:10DB0000002010BD0020024010B588B005A968466D
:10DB100000F020F90398B0F5806F08D0B0F5A06F41
:10DB200035D0B0F5C06F34D0B0F5E06F33D0012000
:10DB30001A494FF0804200240968B1FBF0F04FF41D
:10DB40007A61B0FBF1F11648491E02604FF6FF7290
:10DB5000C0E90324C0E9011444611248C16941F0DD
:10DB60000101C161C06900F0010006900C4800F09D
:10DB700042FC002809D10C480460094800F057FC19
:10DB8000002802D1064800F06FFC08B010BD02204A
:10DB9000CEE70420CCE70820CAE7000058010020A7
:10DBA0006C3A002000100240540100207047000031
:10DBB000064A00F0070110684FF6FF03184040EADC
:10DBC0000120034908431060704700000CED00E09D
:10DBD0000000FA052DE9F047DFF8688104460E469B
:10DBE000D8F8000000F00700B0420CD2D8F80010BE
:10DBF00021F007013143C8F80010D8F8000000F008
:10DC00000700B04273D120784F4F800705D5786860
:10DC1000A16820F0F000084378602078C00755D054
:10DC20006068012201280CD0022828D0022393FA30
:10DC3000A3F1B1FA81F141F02001490904D039681A
:10DC400003E04FF40033F2E7796A93FAA3F3B3FAEF
:10DC500083F303F01F039A40114248D0796821F002
:10DC6000030101437960FFF727FF0546606841F231
:10DC7000883101280CD00228894615D022E04FF0C7
:10DC80000073D4E7FFF718FF411B494501D916E09F
:10DC900089467868C0F381000128F3D116E0FFF7C8
:10DCA0000BFF411B49450AD87868C0F38100022860
:10DCB000F5D10BE0FFF700FF411B494502D90320D6
:10DCC000BDE8F087786810F00C0FF3D1D8F8001099
:10DCD000404601F00701B1420BD9016821F007016C
:10DCE00031430160006800F00700B04201D001201C
:10DCF000E6E72078400705D57868E16820F4E06021
:10DD0000084378602078000706D57868216920F4F8
:10DD1000605040EAC100786000F06CF87968F02249
:10DD200092FAA2F201F0F001B2FA82F2D140074A6F
:10DD3000515CC840064908600F20FFF7E5FE00204F
:10DD4000BEE700000020024000100240809F010852
:10DD5000580100200F2202600C4A536803F00303AD
:10DD60004360536803F0F0038360536803F4E06397
:10DD7000C36052684FF4E06303EAD20202610448D0
:10DD8000006800F0070008607047000000100240C3
:10DD90000020024008480949006849684FF4E062E1
:10DDA00092FAA2F201F4E061B2FA82F2D140044A9E
:10DDB000515CC8407047000058010020001002402C
:10DDC000909F010808480949006849684FF460526B
:10DDD00092FAA2F201F46051B2FA82F2D140044AFE
:10DDE000515CC840704700005801002000100240FC
:10DDF000909F010810B519A085B00FC88DE80F00DD
:10DE00001AA01B4B0068049059681A4801F00C02D4
:10DE1000042A1DD0082A1BD14FF4701494FAA4F4DC
:10DE200001F47012B4FA84F4E240C9031DF8022030
:10DE300010D559684FF4003393FAA3F301F400317D
:10DE4000B3FA83F3D94004AB595CB0FBF1F0504313
:10DE500005B010BD08485043FAE70000020304056E
:10DE6000060708090A0B0C0D0E0F10100102000026
:10DE70000010024000127A0000093D002DE9F84F21
:10DE800004460078FE4EC0074FF001057FD0706851
:10DE90004FF40038C0F38100012807D07068C0F348
:10DEA000810002281BD17068C00318D598FAA8F029
:10DEB000B0FA80F040F02000400901D0306800E066
:10DEC000706A98FAA8F1B1FA81F101F01F0105FA20
:10DED00001F108425BD06068002879D057E06068A3
:10DEE000B0F5803F0BD010B1B0F5A02F11D0306845
:10DEF00020F480303060306820F4802002E0306808
:10DF000040F480303060606818B3FFF7D5FD0746F5
:10DF100009E0306840F480203060F0E7FFF7CCFD86
:10DF2000C01B642870D898FAA8F0B0FA80F040F0CE
:10DF30002000400901D0306800E0706A98FAA8F12A
:10DF4000B1FA81F101F01F0105FA01F10842E5D0B3
:10DF50001DE0FFF7B1FD074604E0FFF7ADFDC01B74
:10DF60006428DFD898FAA8F0B0FA80F040F02000DA
:10DF7000400901D0306800E0706A98FAA8F1B1FA5F
:10DF800081F101F01F0105FA01F10842E5D1207885
:10DF9000DFF8F08280074FF0000A4FF002075AD5F1
:10DFA00070684FF0F80B10F00C0F07D07068C0F3DA
:10DFB000810002281CD17068C00319D497FAA7F019
:10DFC000B0FA80F040F02000400902D0306801E053
:10DFD0008AE0706A97FAA7F1B1FA81F101F01F01A6
:10DFE00005FA01F108422BD0206901287CD127E0F5
:10DFF000206988B395FAA5F0B0FA80F048F820506F
:10E00000FFF75AFD814606E04DE1FFF755FDA0EB15
:10E010000900022886D897FAA7F0B0FA80F040F0FD
:10E020002000400901D0306800E0706A97FAA7F13B
:10E03000B1FA81F101F01F0105FA01F10842E4D0C3
:10E0400030689BFAABF220F0F8016069B2FA82F214
:10E0500090400143316025E0FFE795FAA5F1B1FA60
:10E0600081F148F821A0FFF727FD814605E0FFF781
:10E0700023FDA0EB09000228CCD897FAA7F0B0FA4C
:10E0800080F040F02000400901D0306800E0706A64
:10E0900097FAA7F1B1FA81F101F01F0105FA01F138
:10E0A0000842E4D1207800076DD5A069B8B395FA8D
:10E0B000A5F0B0FA80F008EB8000C0F88054FFF7BC
:10E0C000FBFC814605E0FFF7F7FCA0EB0900022806
:10E0D000A0D897FAA7F0B0FA80F040F06000B5EB56
:10E0E000501F02D130680CE063E197FAA7F0B0FA54
:10E0F00080F040F06000B7EB501F01D1306A00E0C3
:10E10000706A97FAA7F1B1FA81F101F01F0105FADF
:10E1100001F21042D7D00120FFF726FB33E0FFE7E2
:10E1200095FAA5F1B1FA81F108EB8101C1F880A45B
:10E13000FFF7C2FC814605E0FFF7BEFCA0EB09003B
:10E14000022899D897FAA7F0B0FA80F040F0600062
:10E15000B5EB501F01D130680BE097FAA7F0B0FA89
:10E1600080F040F06000B7EB501F01D1306A00E052
:10E17000706A97FAA7F1B1FA81F101F01F0105FA6F
:10E1800001F21042D8D12078400763D5F06940F001
:10E190008050F061F069DFF8F0B000F0805000903E
:10E1A000DBF8001041F48071CBF80010FFF784FC1D
:10E1B000814605E0FFF780FCA0EB0900642872D8D7
:10E1C000DBF80000C005F5D5E06801280AD008B1E9
:10E1D000052813D0306A20F001003062306A20F048
:10E1E000040002E0306A40F001003062E06841F271
:10E1F000883B80B3FFF760FC81460AE0306A40F05C
:10E2000004003062EEE7FFF757FCA0EB0901594527
:10E2100049D897FAA7F0B0FA80F040F04000B5EB8B
:10E22000501F01D130680BE097FAA7F0B0FA80F0E8
:10E2300040F04000B7EB501F01D1306A00E0706A37
:10E2400097FAA7F1B1FA81F101F01F0205FA02F184
:10E250000842D8D033E0FFE7FFF72EFC814605E007
:10E26000FFF72AFCA0EB090159451CD897FAA7F043
:10E27000B0FA80F040F04000B5EB501F08D105E047
:10E2800000100240000042420070004030680CE084
:10E2900097FAA7F0B0FA80F040F04000B7EB501FBB
:10E2A00002D1306A01E08AE0706A97FAA7F1B1FA08
:10E2B00081F101F01F0205FA02F10842D0D1E069B4
:10E2C00098B37168C1F38101022972D002284FF01E
:10E2D00080714FF0007B50460AD091FAA1F1B1FA5B
:10E2E00081F148F82100FFF7E7FB04465F4669E04B
:10E2F0008A4691FAA1F1B1FA81F1C14648F82100AC
:10E30000FFF7DAFBA84607465D4604E0FFF7D4FBBB
:10E31000C01B022853D895FAA5F0B0FA80F040F05F
:10E320002000400902D0306801E060E0706A95FA90
:10E33000A5F1B1FA81F101F01F0208FA02F10842D9
:10E34000E4D1206AB0F5803F05D17068A16820F45F
:10E35000003008437060D4E908010843716821F473
:10E360007411084370609AFAAAF0B0FA80F0474638
:10E3700049F82080FFF7A0FB044604E0FFF79CFB70
:10E38000001B02281BD895FAA5F0B0FA80F040F0E7
:10E390002000400901D0306800E0706A95FAA5F1CC
:10E3A000B1FA81F101F01F0107FA01F10842E5D04D
:10E3B0001DE01EE0FFF780FB001B022802D90320AE
:10E3C000BDE8F88F97FAA7F0B0FA80F040F020008F
:10E3D000400901D0306800E0706A97FAA7F1B1FAFD
:10E3E00081F101F01F0105FA01F10842E2D100209C
:10E3F000E6E70120E4E710B50446022084F839007E
:10E400002068016A41F21112114207D1016A92108B
:10E41000114203D1016821F001010160204600F0A2
:10E4200021F8002084F8390084F8380010BD10B5B8
:10E43000040003D094F8390010B107E0012010BDAA
:10E44000002084F83800204600F00DF8022084F8FF
:10E450003900211D206801F03FF8012084F83900BF
:10E46000002010BD70477047022180F83910016804
:10E470000A6842F001020A60012180F83910002088
:10E48000704770B5044690F838000D4601280DD04D
:10E49000012684F83860022084F8390042B1042A49
:10E4A00018D0082A2AD00C2A4DD139E0022070BD9C
:10E4B000206801F04FF82068816941F0080181610E
:10E4C0002068816921F004018161206881692A69DD
:10E4D000114311E0206801F069F82068816941F476
:10E4E000006181612068816921F480618161206817
:10E4F00081692A6941EA0221816124E0206801F0F2
:10E5000083F82068C16941F00801C1612068C169D0
:10E5100021F00401C1612068C1692A69114311E039
:10E52000206801F09DF82068C16941F40061C16173
:10E530002068C16921F48061C1612068C1692A69CC
:10E5400041EA0221C16184F83960002084F8380072
:10E5500070BD10B50446022084F839002068016AB5
:10E5600041F21112114207D1016A9210114203D1F6
:10E57000016821F001010160204600F021F800202F
:10E5800084F8390084F8380010BD10B5040003D0B9
:10E5900094F8390010B107E0012010BD002084F884
:10E5A0003800204600F00DF8022084F83900211DC3
:10E5B000206800F091FF012084F83900002010BD90
:10E5C0007047704710B504460068012200F0B6FF9E
:10E5D00007492068884203D1416C41F400414164FD
:10E5E0002068016841F001010160002010BD0000B9
:10E5F000002C014070B5040018D0022084F83900C6
:10E600002068C16821F40051C16020680025C56000
:10E610002068056120684561204600F038F8E56310
:10E6200084F8395084F83850002070BD012070BD46
:10E6300070B5040004D094F83900002510B106E04C
:10E64000012070BD84F83850204600F021F80220E7
:10E6500084F839002068C16821F40051C160204667
:10E6600001F020F82068016921F4904101612068DF
:10E67000416921F02A0141612068C16841F40051DB
:10E68000C160E563012084F83900002070BD704747
:10E69000704704F0D3FB002070471CB508F00CFD58
:10E6A00000281BD09E208DF80000E7208DF8010087
:10E6B0006946102000F066FC08F0FEFC00280DD032
:10E6C00000208DF800006946082000F05BFC01A9DD
:10E6D000002008F085FC012800D000201CBD0000AF
:10E6E00070B5104C0D21204606F0F5FE0D4D60145E
:10E6F000103528600E21204606F0EDFE4FF48040D4
:10E70000286001220C21204606F0A3FE206820F09C
:10E710000F002060206840F0070020600120286082
:10E7200070BD0000000C01402DE9F04117460D4678
:10E7300080460026FFF7C4F8A80706D000206E2206
:10E740000DA104F006FC00240DE00120F7E757F8C6
:10E75000242008EB840100230220FFF76FF808B1A2
:10E76000012603E0641CB4EB950FF0D3FFF75CF8CF
:10E770003046BDE8F08100002E2E5C2E2E5C2E2E41
:10E780005C736F757263655C6869635F68616C5C1C
:10E7900073746D33325C73746D3332663130337839
:10E7A000625C666C6173682E630000002DE9F007FF
:10E7B00010F03F0308BF402310F0800FDFF8C09037
:10E7C000DFF8C0A04FF40054A9F104062CD0002BB0
:10E7D00012BFDFF8B480BDE8F007704700274FF0A4
:10E7E000080CDAF8045010E0491EFDD1D8F80000FA
:10E7F0003460C0F300312846401EFDD178085B1E0E
:10E8000040EAC117BCF1010C05D0002B1CBFC9F8B0
:10E8100000402946E8D127FA0CF002F8010B002B42
:10E82000DCD1BDE8F0077047002B19BF4FF4804CD6
:10E83000DAF80420BDE8F007704700BF11F8015B6B
:10E84000082712E0E80714BFC6F800C0C9F800C0E6
:10E85000C9F800401046401EFDD134601046401EED
:10E86000FDD16D085B1E7F1E04D0002BEAD1BDE8F0
:10E87000F0077047002BE1D1BDE8F00770470000BA
:10E88000140C014078040020080C0140034A52781F
:10E890000AB100F005B800F055B900007804002076
:10E8A0002DE9F04FA04F4FF4804AC7F800A07E1426
:10E8B0003D1D2E603E60C20714BFC7F800A0C5F81A
:10E8C00000A02E603E6042085FEAC27C14BFC7F819
:10E8D00000A0C5F800A02E603E60830802445FEAF5
:10E8E000C37C14BFC7F800A0C5F800A02E603E602E
:10E8F0001344C2085FEAC27C14BFC7F800A0C5F881
:10E9000000A02E603E601A44D20714BFC7F800A0D2
:10E91000C5F800A02E603E60C5F800A02E603E60E5
:10E92000C7F800A02E603E60DFF800B2DBF80420DC
:10E9300022F07062CBF80420DBF80420CBF804202E
:10E94000C7F800A0DFF8E8E19EF81C20131E03D0F2
:10E950002E603E60521EFBD12E60DFF8D891D9F8B0
:10E9600000203E60C2F300322E60D9F800C03E6045
:10E97000CCF3003C42EA4C022E60D9F800C03E6065
:10E98000CCF3003C42EA8C02012A1DD0022A18BFB7
:10E99000042A7DD013F1210003D02E603E60401E7A
:10E9A000FBD1DBF8040020F07060CBF80400DBF84A
:10E9B000040040F04070CBF80400C5F800A0C7F890
:10E9C00000A01046BDE8F08F10F0020F4AD00024DE
:10E9D000A04620232E60D9F800C03E60CCF3003C56
:10E9E0006408E04444EACC745B1EF3D12E60D9F88D
:10E9F00000303E6088EA133313F0010F18BF08227D
:10EA0000002918BF0C609EF81C1019B12E603E60E2
:10EA1000491EFBD1DBF8041021F07061CBF8041023
:10EA2000DBF8041041F04071CBF80410C5F800A0E9
:10EA300010F0800F0AD0404840490068B0FBF1F068
:10EA40003F494968B1FBF0F0CEF80C009EF8100089
:10EA5000002818BFC5F800A061D02E603E60401E9F
:10EA6000FBD15CE01BB12E603E605B1EFBD1DBF88E
:10EA7000043023F07063CBF80430DBF8043043F04B
:10EA80004073CBF80430C5F800A00968002300E00B
:10EA900017E04FF0200CCC0714BFC7F800A0C5F852
:10EAA00000A02E603E600B444908BCF1010CF2D17D
:10EAB000D90714BFC7F800A0C5F800A02E603E60BB
:10EAC000B6E79EF81DC0BCF1000F1CBF10F0020F8E
:10EAD000212103D02E603E60491EFBD11BB12E6068
:10EAE0003E605B1EFBD1DBF8041021F07061CBF8B7
:10EAF0000410DBF8041041F04071CBF80410C5F8A5
:10EB000000A0BCF1000F0AD010F0020F04BFC5F83E
:10EB100000A0212003D12E603E60401EFBD1C7F82B
:10EB200000A01046BDE8F08F100C0140000C014021
:10EB300078040020080C01405801002000A24A047B
:10EB4000001000E02DE9F04FDFF810A44FF4804EE4
:10EB50004FF0000CCAF800E00AF104094FF4005726
:10EB6000C9F80070FE4D6A6813465B1EFDD1CAF8F5
:10EB7000007013465B1EFDD1C30714BFCAF800E046
:10EB8000C9F800E0C9F8007013465B1EFDD1CAF851
:10EB9000007013465B1EFDD10CEB00044FEA500CD5
:10EBA0005FEACC7314BFCAF800E0C9F800E0C9F806
:10EBB000007013465B1EFDD1CAF8007013465B1E41
:10EBC000FDD164444FEA900C5FEACC7314BFCAF8DD
:10EBD00000E0C9F800E0C9F8007013465B1EFDD1E3
:10EBE000CAF8007013465B1EFDD164444FEAD00C96
:10EBF0005FEACC7314BFCAF800E0C9F800E0C9F8B6
:10EC0000007013465B1EFDD1CAF8007013465B1EF0
:10EC1000FDD104EB0C03DB0714BFCAF800E0C9F810
:10EC200000E0C9F8007013465B1EFDD1CAF8007001
:10EC300013465B1EFDD1C9F800E0C9F80070134609
:10EC40005B1EFDD1CAF8007013465B1EFDD1CAF8E9
:10EC500000E0C9F8007013465B1EFDD1CAF80070D1
:10EC600013465B1EFDD1BF4BD3F804C02CF0706C73
:10EC7000C3F804C0D3F804C0C3F804C0CAF800E065
:10EC80002C7FB4F1000C0BD0C9F8007013465B1E4A
:10EC9000FDD1CAF8007013465B1EFDD1641EF3D18E
:10ECA000C9F8007013465B1EFDD1DFF8BCB2DBF87B
:10ECB0000030CAF80070C3F300331446641EFDD15F
:10ECC000C9F800701446641EFDD1DBF80040CAF894
:10ECD0000070C4F300341646761EFDD143EA4403A7
:10ECE000C9F800701446641EFDD1DBF80040CAF874
:10ECF0000070C4F3003415466D1EFDD143EA84084C
:10ED0000B8F1010F24D0B8F1020F18BFB8F1040F09
:10ED100072D01CF121010BD0C9F800701046401EC2
:10ED2000FDD1CAF800701046401EFDD1491EF3D136
:10ED30008C48416821F070614160416841F0407148
:10ED40004160C9F800E0CAF800E04046BDE8F08F35
:10ED500010F0020F51D0002635464FF0200C00BFB6
:10ED6000C9F8007013465B1EFDD1DBF80030CAF80D
:10ED70000070C3F3003413465B1EFDD173082544B5
:10ED800043EAC476BCF1010CEAD1BC46C9F8007074
:10ED9000734C13465B1EFDD1DBF80030CAF800C08F
:10EDA000C3F30033521EFDD185EA030212F0010FB6
:10EDB00018BF4FF00808002918BF0E60257F002DEE
:10EDC00018BF63680CD000BFC9F800C01A46521EB5
:10EDD000FDD1CAF800C01946491EFDD16D1EF3D100
:10EDE00060494A6822F070624A604A6842F04072A4
:10EDF0004A60C9F800E047E069E0BCF1000F0CD0C0
:10EE0000C9F8007013465B1EFDD1CAF800701346A6
:10EE10005B1EFDD1BCF1010CF2D1524BD3F804C002
:10EE20002CF0706CC3F804C0D3F804C04CF0407CE4
:10EE3000C3F804C0F446C9F800E000240B6820259C
:10EE4000D90714BFCAF800C0C9F800C0C9F80070DB
:10EE50001146491EFDD1CAF800701146491EFDD168
:10EE60001C445B086D1EEBD1E10714BFCAF800C05B
:10EE7000C9F800C03B46C9F800701146491EFDD1D3
:10EE8000CAF80030521EFDD110F0800F0AD037486A
:10EE900037490068B0FBF1F036494968B1FBF0F042
:10EEA0002F49C8602E48027C002A1CBFC9F800E028
:10EEB000416851D0C9F800700846401EFDD1CAF81B
:10EEC00000700846401EFDD1521EF3D144E0244993
:10EED0004C7F002C1CBF10F0020F21230CD000BF70
:10EEE000C9F800701146491EFDD1CAF800701146DC
:10EEF000491EFDD15B1EF3D1BCF1000F0DD000BF48
:10EF0000C9F800701146491EFDD1CAF800701146BB
:10EF1000491EFDD1BCF1010CF2D112494B6823F01E
:10EF200070634B604B6843F040734B60C9F800E07E
:10EF300094B110F0020F04BFC9F800E021210BD1F9
:10EF4000C9F800701046401EFDD1CAF80070104686
:10EF5000401EFDD1491EF3D10EE00000100C01400F
:10EF600078040020000C0140080C014058010020EA
:10EF700000A24A04001000E0CAF800E04046BDE8E4
:10EF8000F08F00002DE9F001441E3CBFBDE8F00108
:10EF900070474FF480474FF400581348114DD0F894
:10EFA00004202E1F11F8013B4FF0080C13F0010F45
:10EFB00014BF37602F60C5F800801046401EFDD199
:10EFC000C6F800801046401EFDD15B08ACF1010C74
:10EFD000641E3CBFBDE8F0017047BCF1000FE5D1F5
:10EFE000E0E70000140C01407804002070B50C46E6
:10EFF00082780188C0780D4D62F31F4141EA0060BC
:10F00000A97801290CD000200021E9702070010AA4
:10F010006170010CA170000EE0704FF0041070BD23
:10F0200000F006F80028EFD0F0E700000400002010
:10F0300070B506461D48864200D906461C4C1D4D3B
:10F04000E078C00710D00021AA6A16209047E86A2D
:10F050008047800708D5686A8047A1680844A06097
:10F060000021AA6A19209047AA6A314601209047D8
:10F0700010B10020207070BD01202070E078C10721
:10F0800011D080070BD4A0680B4AC0F30C0000F02D
:10F090003F01C1F1400110442161AA69904701215B
:10F0A000AA6A16209047304670BD000040420F000B
:10F0B0000400002038A4010898040020024A1161CD
:10F0C000024A9269104700000400002038A4010899
:10F0D0002DE9F0410078124E00F001050024F0788F
:10F0E0000F4600F00100A84211D045B1B01D0470D8
:10F0F00044703471B460F4600E3004604460B078E1
:10F10000012806D1284600F00DF810B1F5703C70CA
:10F1100001E0FF2038704FF00110BDE8F0810000E1
:10F120000400002070B5134D134C80B128780028DE
:10F130000CD0012028610146A2691048904720B9EF
:10F140000121A26A1620904790B1002070BD0021D5
:10F15000A26A16209047E06A8047800708D5606A57
:10F160008047A9680844A8600021A26A1920904736
:10F17000012070BD0400002038A40108980400207C
:10F180002DE9F0410D460746FEF7E0FA0646FEF788
:10F19000C1FA1F4A0446517801290AD0002405F813
:10F1A000016B200A05F8014B012905F8010B08D075
:10F1B00029E038883C2800D93C208442EFD9044615
:10F1C000EDE7D36820461946124E06E0C1F30C0164
:10F1D000401E775C05F8017B491C0028F6D1181900
:10F1E000D060D07803280ED19068D168411AB1F56B
:10F1F000005F08D29178C0F30C00012903D1D170CF
:10F200003044FFF75BFFE41C44F40030BDE8F081BC
:10F2100004000020980400202DE9F0410678002524
:10F220000C46F00704D0FEF791FA04F8010B012513
:10F23000B0070DD5FEF76EFA04F8010B010A04F8C9
:10F24000011B010C04F8021B000E04F8010C2D1D1B
:10F25000700718D50E4B002603F114025E71116879
:10F2600050685F79002FF9D121700A0A62700A0C88
:10F27000A270090EE1702071010A6171010C000E8B
:10F28000A171E0712D1D45F48030BDE8F0810000D2
:10F290000400002010B5054CE06A8047800703D5C4
:10F2A000606ABDE810400047002010BD38A4010886
:10F2B0002DE9F041104D04780E46A878012802D1BE
:10F2C000002000F01BF800271CB1012C03D0002007
:10F2D00007E0012003E0012000F010F808B1AC7055
:10F2E00000E0AF70EF7008B1377001E0FF203070C0
:10F2F0004FF00110BDE8F0810400002010B5104A65
:10F300000021104C117060B1A1680F48884708B106
:10F31000002010BD21690220884778B1E06880474D
:10F32000F6E70021A26A162090470021A26A192060
:10F330009047216900208847E0688047012010BD80
:10F340000400002038A40108A1F9000870B50446A3
:10F35000FEF7FCF90546FEF7DDF925706070010A3D
:10F36000A170010CE170000E2071052070BD00003D
:10F37000074AD378DB0703D1007830B1012804D0E5
:10F38000FF2008704FF00110704750700020F8E720
:10F3900004000020034A911F0979535C034353542E
:10F3A000704700000A0000200C490D4A0968B0EBC4
:10F3B000910F02D3012050700DE000EB5101491E66
:10F3C000B1FBF0F000235370022803D90321B0FBF6
:10F3D000F1F000E00120506070470000580100206B
:10F3E00078040020144A10B55068144B10F00C013A
:10F3F000134803D0042901D0082901D0036012E08A
:10F400005168536801F470114FF0020413F4803F07
:10F4100004EB914102D053689B0301D5094B00E0F6
:10F42000064B594301605168074AC1F30311515C0F
:10F430000268CA40026010BD0010024000127A004B
:10F440005801002000093D00809F01080D48016817
:10F4500041F00101016041680B4A114041600168BF
:10F460000A4A11400160016821F48021016041686D
:10F4700021F4FE0141604FF41F0181600449C00383
:10F4800008607047001002400000FFF8FFFFF6FE22
:10F4900008ED00E0BFF34F8F05480168054A01F40D
:10F4A000E06111430160BFF34F8F00BFFDE7000033
:10F4B0000CED00E00400FA05044805490068B0FBC3
:10F4C000F1F004494968B1FBF0F0704758010020A1
:10F4D00000A24A04001000E0F0B50268144C154D7B
:10F4E000154E4FF08047A04205D0B84203D0A84245
:10F4F00001D0B04203D122F070034A681A43A042FF
:10F5000005D0B84203D0A84201D0B04203D122F4C2
:10F510004073CA681A4302608A68C2620A688262DB
:10F52000A04201D10969016301214161F0BD0000E0
:10F53000002C0140000400400008004010B50123E9
:10F54000046A8B409C430462036A8A40134303624B
:10F5500010BD000030B5026A22F001020262036AA7
:10F560004268846924F073050C682C4323F002057B
:10F570008B682B430C4DA84206D123F00805CB68BD
:10F5800043EA050323F0040307D14D6922F44072D6
:10F5900045EA02058A6942EA0502426084614968D7
:10F5A0004163036230BD0000002C014030B5026AA7
:10F5B00022F010020262026A436884690D6824F432
:10F5C000E64444EA05248D6822F0200242EA05124E
:10F5D0000C4DA84206D1CD6822F0800242EA051205
:10F5E00022F0400207D14D6923F4406343EA8503CA
:10F5F0008D6943EA850343608461496881630262DF
:10F6000030BD0000002C014030B5026A22F4807247
:10F610000262036A4268C46923F4007324F073052C
:10F620000C682C438D6843EA05230C4DA84206D193
:10F63000CD6823F4006343EA052323F4806307D1F4
:10F640004D6922F4405242EA05128D6942EA0512E0
:10F650004260C4614968C163036230BD002C01404F
:10F6600030B5026A22F480520262036A4268C469B9
:10F670000D6824F4E64444EA05248D6823F400531D
:10F6800043EA0533064DA84204D14D6922F4804275
:10F6900042EA85124260C46149680164036230BD78
:10F6A000002C01402DE9F041044600680169E26840
:10F6B00021F4405111430161A1682069014360694F
:10F6C00001432068C26841F20C639A430A43C26056
:10F6D00020684169A26921F44071114341614C499C
:10F6E00020686426322788423CD1FEF76BFB00EB92
:10F6F000C00101EB001061688900B0FBF1F5FEF775
:10F7000061FB00EBC00101EB00106168B8468900A5
:10F71000B0FBF1F0B0FBF6F06FF01801484305EBD9
:10F72000800107EB0110B0FBF6F000F0F005FEF7EA
:10F7300049FB00EBC00101EB001061688900B0FBE0
:10F74000F1F0B0FBF6F005EB0015FEF73BFB00EB2C
:10F75000C00101EB001061688900B0FBF1F7FEF712
:10F7600031FB3BE0FEF716FB00EBC00101EB0010A4
:10F7700061688900B0FBF1F5FEF70CFB00EBC001FE
:10F7800001EB00106168B8468900B0FBF1F0B0FBF6
:10F79000F6F06FF01801484305EB800107EB01100C
:10F7A000B0FBF6F000F0F005FEF7F4FA00EBC00154
:10F7B00001EB001061688900B0FBF1F0B0FBF6F0DE
:10F7C00005EB0015FEF7E6FA00EBC00101EB0010B7
:10F7D00061688900B0FBF1F7FEF7DCFA00EBC001CD
:10F7E00001EB001061688900B0FBF1F0B0FBF6F0AE
:10F7F0006FF01801484307EB800108EB0110B0FBE4
:10F80000F6F0216800F00F0028448860BDE8F08120
:10F8100000380140014A00F00BB90000E8A30108DC
:10F820000148006870470000E8A30108014800F0A3
:10F83000DFBB0000E8A301080548C16A29B10968D7
:10F840004968406B0068401A7047406B0069704718
:10F85000E8A30108014800F003BC0000E8A3010888
:10F860000548816A29B109684968406B4068401AB7
:10F870007047406B40697047E8A30108014800F0F9
:10F8800040BC0000E8A30108014900F037BD0000BA
:10F89000E8A30108014900F0ADBD0000E8A301089C
:10F8A000014A00F0B1BE0000E8A30108014A00F0DF
:10F8B00023BF0000E8A30108014900F081BF000058
:10F8C000E8A3010870B5124C15460B4606001BD084
:10F8D000D3B1CDB1216BC87A42074FF0FF3015D5B7
:10F8E000C968022912D1616B03202246C8612946EA
:10F8F000184600F089FE002808D1224629463046E5
:10F90000BDE8704000F0F8BE6FF0040070BD00006C
:10F91000E8A30108014800F091BF0000E8A3010836
:10F9200070B515480468154DA00612D52868C6B2F2
:10F93000134803F0A1FB132804D93146104803F003
:10F94000FFFB06E005D14FF013020EA10C4803F0B7
:10F950004AFC200607D5104803F09BFB20B10E4857
:10F9600003F0B2FB286070BD0448083001680B4A00
:10F970001140016070BD000000440040044400409C
:10F98000D83C00203C4441504C696E6B3A4F766540
:10F9900072666C6F773E0A00C83A00207FFFFFEF67
:10F9A00070B50446800728D51B481C490068B0FB89
:10F9B000F1F01B4949681B4BB1FBF0F05860A3F113
:10F9C0001405E868A9682A690A44AA601A6002F066
:10F9D0003F01C1F14001101AC1F50053834208D321
:10F9E000C2F30C00104A29611044104A92699047F2
:10F9F00001E00320E87001206871A00602D5802094
:10FA0000FFF7C8FC14F4607F04D0BDE870404020CC
:10FA1000FFF7C0BC70BD00005801002000A24A04DE
:10FA2000001000E0180000209804002038A401080D
:10FA30002DE9F84F136B14464FF0FF3ADA7A92072C
:10FA40007ED54FF0000900F0FF0BABF115074D46D6
:10FA50004E464A466FF0010C062F72D2DFE807F0DF
:10FA600080AF031E3850606B71B190F821100029EF
:10FA700068D1012180F82110606B80F82010606847
:10FA8000818941F0810181E090F82000002836D082
:10FA90006068818921F08001818115E06068818939
:10FAA00021F0C0018181A06A70B1606B90F82100E3
:10FAB00050B16068818A21F080018182A06A00686B
:10FAC000016821F001010160606B80F8202043E0B3
:10FAD0006068818921F020018181E06A68B1206B32
:10FAE000407950B16068818A21F040018182E06AEA
:10FAF0000068016821F001010160206B42713DE165
:10FB00006068818921F0E0018181A06A70B1606B39
:10FB100090F8210050B16068818A21F080018182D3
:10FB2000A06A0068016821F001010160E06A88B103
:10FB3000206B407970B16068818A21F0400102E059
:10FB400083E083E0FDE08182E06A0068016821F0E3
:10FB500001010160206B4271606B80F821200DE192
:10FB6000E068002871D099B1D968062905D081884C
:10FB7000006803230222FDF729FD206BC17A41F0C2
:10FB80000801C1726068818941F008018181F5E056
:10FB90006068818921F008018181206BC17A21F0A0
:10FBA0000801C172206BC068062807D0E06849E0F0
:10FBB0008188002300681A46FDF708FDDEE0206911
:10FBC000002842D069B3D968062907D0042905D096
:10FBD0008188006800230122FDF7F8FC206BC17AC0
:10FBE00041F01001C1726068818A41F00101818297
:10FBF0006068018A41F0400101826068818941F0BA
:10FC000010018181206B407908B1E06A20B96068F9
:10FC1000818941F0200181816068818941F004017E
:10FC2000B4E76068818921F004018181206BC17A89
:10FC300021F01001C172206BC068062804D004288E
:10FC400002D020690028B3D198E09DE05A79002ABB
:10FC500077D1626B009292F82120002A71D16268FC
:10FC600097893F0702D517887F066AD501EB011CEB
:10FC70005F460CEB4C0E01EB011C6FF006080CEB21
:10FC8000411B152F7CD2DFE807F0880B0D2E1417CF
:10FC90001A8888888888888888883134525D7C00F2
:10FCA000012311E023789B071DD54FF41065022333
:10FCB0000AE00826042307E00226052304E023784F
:10FCC0009B0610D5202606239A4610F4E0634FF4D5
:10FCD000805C69D06FF00807B3F5807F77D0B3F50B
:10FCE000E06F77D15CE04046BDE8F88F0098418333
:10FCF00044E0D868052847D011B3908A40F004004A
:10FD00009082BA4AA068B2FBF0F3012003FB00F234
:10FD10008A4202D8401CFF28F8D9B0F5807F33D042
:10FD200061680A8B22F0FF0202430A8326E0D8684A
:10FD3000062829D1FF2927D8108BC0B20843108389
:10FD40001CE090E0D86806281ED1A849A068B1FB45
:10FD5000F0F4012004FB00F1C8235943B1EB4E0F2E
:10FD600002D2B1EB4B0F02D8401C4028F2D34028FE
:10FD70000AD0118B21F0FF01014311830020B3E76A
:10FD80000BE0D868062801D05046ADE70029F5D031
:10FD9000908A40F010009082F0E76FF00300A3E734
:10FDA00010F4405F16D005E010F4405F02D045F03B
:10FDB0002005E14610F4405314D063450CD0B3F550
:10FDC000005F0CD06FF009008EE700E002E010F455
:10FDD000405FECD0384687E749F4806301E049F49E
:10FDE000C063994610F4404313D0B3F5804F08D058
:10FDF000B3F5004F08D0B3F5404F08D06FF00A00BC
:10FE000072E745F4005504E045F4405501E045F43F
:10FE1000805510F4403315D04FF480376FF00B0C41
:10FE2000BB4211D07F00BB4214D04FF44037BB42DD
:10FE300019D123685FEA036815D5DB0513D546F4AD
:10FE4000E0660CE000270AE023781B060BD546F499
:10FE5000807604E02388DB0505D546F4C066BAF158
:10FE6000020F02D017E060463EE710F4802307D06F
:10FE7000B3F5802F02D06FF00C0035E745F48065B4
:10FE800010F4002007D0B0F5002F02D06FF00D0065
:10FE90002AE745F40075A068009000EBC00303EB6F
:10FEA00000138800B3FBF0FCB3FBF0F86421B3FB54
:10FEB000F0F0B0FBF1F0BCFBF1FC6FF0180358431D
:10FEC00008EB8000322303EB0010B0FBF1F1009847
:10FED0006CF31F11000189B2B0FBF1F0000964233B
:10FEE0005843B0EB4E0F02D2B0EB4B0F02D86FF07D
:10FEF0000700F9E6908920F4005090816068018144
:10FF0000216BC1F80CA0206B0761206BC16806292A
:10FF100002D0C07A000706D5E06860B1818803236B
:10FF20000068022205E0E06828B1818800230068AB
:10FF30001A46FDF74BFB206BC16804291ED0062929
:10FF40001CD0C07AC00619D5206950B18188002321
:10FF50000068012203E08188002300681A46FDF74B
:10FF600035FB6069A0B1216BC96802290AD0062956
:10FF700008D08188002300681A4607E0206900281D
:10FF8000E9D1EEE78188006803230222FDF71EFB1A
:10FF9000A06958B1B7F5803F22D0B7F5403F1FD0D8
:10FFA0008188002300681A46FDF710FBE06928B13C
:10FFB0008188006800230122FDF708FB6168A1F831
:10FFC0000C9060680582606886826068818941F46F
:10FFD00000518181206BC17A41F00401C172CDE6EC
:10FFE0008188032300680222DEE7000000CA9A3BF2
:10FFF00008B5009921F001010091016B096911B167
:020000040801F1
:10000000B1F5803F0CD1C06950B1016800798968B1
:10001000C14011F0010F03D1009840F001000090A1
:10002000009820F002000090009820F00800009056
:10003000009820F004000090009961F300000099FE
:10004000490861F341000099890861F38200009931
:10005000C90861F3C3000099090961F31F1008BDC5
:1000600008B5416B91F8211021B1009941F00101CF
:10007000009107E041680988009A8911491C61F3E1
:1000800000020092006B0099427962F341010091F5
:100090008279009962F382010091C279009962F33A
:1000A000C3010091027A009962F304110091427A2F
:1000B000009962F345110091817A009861F38610EE
:1000C0000090009961F300000099490861F3410034
:1000D0000099890861F382000099C90861F3C3009F
:1000E0000099090961F304100099490961F3451069
:1000F0000099890961F386100099C90961F3DF103D
:1001000008BD2DE9F041446822880021A5890B46ED
:100110001540AD060F464FF001064ED5056B95F81C
:1001200005C0BCF1000F03D0ED68022D04D007E03C
:10013000A188EE71202140E0456BED69012D2BD0A7
:10014000A388456BAC6804F1010CC5F808C02370A6
:100150004468A48965050BD4E40409D5456B4FEACE
:10016000132EAC6804F1010CC5F808C084F800E057
:10017000456B2C69641C2C61456B2D68AC421CD10D
:100180004468A58925F01005A581046B6771046B8F
:10019000E468022C02D00FE0A488D2E7456BEC693A
:1001A000EF61012C04D0022C06D0032C05D101E014
:1001B000012102E0042100E002214568AC891440DD
:1001C000E40602D5AC8841F04001AC891440240615
:1001D00051D5446B94F820C0BCF1000F04D0AB891A
:1001E00043F00103AB8146E0D4F814C0656865456F
:1001F00019D0036BDB68022B02D1E369022B2FD0ED
:10020000E3685D1CE56044681B78A4895FEA445C90
:1002100009D4E40407D5446B05F1010CC4F80CC003
:100220002C7843EA0423446B65696D1C656144685E
:10023000A380436B5C685B699C421CD143689C89CA
:1002400024F080049C8143689C8944F040049C8194
:10025000436B83F82170036BDC68022C02D008E04A
:10026000638BE0E7446BE469012C04D1DB7ADB06A5
:1002700001D441F0010143689C891440640605D50E
:100280009C8924F040049C8141F00801130705D5A6
:1002900043689B88036B41F02001DE71930705D50D
:1002A00043689B88036B41F480715E72D30705D06D
:1002B00043689B88036B41F400719E72D30508D597
:1002C00043681C8824F480741C80036B41F0800117
:1002D0001E72920506D54268138823F400731380BA
:1002E00041F48061002907D0006B0268002A03D026
:1002F000BDE8F04108461047BDE8F08110B50C4656
:10030000096BCA7AD20701D0002010BD0860216BAA
:1003100000200871216B4871216B8871216BC871B5
:10032000216B0872216B4872216B8872216BC86047
:10033000616B81F821002421606BFBF7D6FF608C94
:10034000FDF7D6F8E06818B100680121FDF770F9F3
:10035000206918B100680121FDF76AF9606918B1D8
:1003600000680121FDF764F9A06918B10068012156
:10037000FDF75EF9E06918B100680121FDF758F951
:10038000216B0120C872BFE730B5164A164990426A
:1003900003D1CB6843F48043CB60144B984203D124
:1003A0000C6944F400340C61114CA04203D10D6976
:1003B00045F480250D6100BF00BF00BF00BF904223
:1003C00003D1CA6822F48042CA60984203D10A6904
:1003D00022F400320A61A04203D1086920F480208F
:1003E000086130BD00380140001002400044004068
:1003F000004800402DE9F0470025DFF88C81DFF848
:100400008C91DFF88CA1634E0C46012738B1291F6F
:10041000012801D002284ED00846BDE8F087606868
:10042000FFF7B2FF94F9240000280CDB00F01F0155
:100430008F404009800000F1E020C0F88071BFF3D8
:100440004F8FBFF36F8FE06A18B141790079FCF7E5
:100450003DFFA06A18B141790079FCF737FF616868
:10046000414503D1B06920F48040B06161684945DD
:1004700003D1F06920F40030F0616168514503D187
:10048000F06920F48020F061206B0571206B4571CC
:10049000206B8571206BC571206B0572206B4572D6
:1004A000206B8572606B80F82150206BC17A21F03F
:1004B0000201C17262E0206BC17ACA0760D089076D
:1004C0005CD40571206B4571206B8571206BC57103
:1004D000206B0572206B4572206B8572606B80F813
:1004E0002150606B4583606BC561606B80F8205064
:1004F000206BC560206B0561216B0320C8726168A9
:10050000414503D1B06940F48040B061616849451C
:1005100003D1F06940F40030F0616168514503D1C6
:10052000F06940F48020F06194F92400002809DB90
:1005300000F01F0107FA01F14009800000F1E020FE
:10054000C0F8801294F92400002808DB00F01F0195
:100550008F404009800000F1E020C0F80071E06A9F
:1005600018B141790079FCF751FEA06A18B14179C0
:100570000079FCF74BFE6068FFF706FF00204CE7B0
:100580004FF0FF3049E700000038014000440040D0
:10059000004800400010024030B4C16A0968496850
:1005A00019B1416B096800292CD141688A8922F070
:1005B00010028A81026B00210C46D268022A0BD1FC
:1005C000436BDA69DC61012A04D0022A04D0032AD1
:1005D00005D103E0012102E0022100E00421426B89
:1005E00013681361026B54714268938943F02003CE
:1005F0009381006B0268002A04D0002902D030BC2D
:100600000846104730BC70472DE9F041050008D07E
:1006100039B1106BC37A5B0706D44FF0FF30BDE8E9
:10062000F0816FF00400FAE740796FF001040128CF
:1006300060D05068838923F020038381506B016070
:10064000136B00201872136B5872136BD871136BF5
:100650009872536B9D60536B1861136B0120587136
:10066000136B8020DB68022B04D1536BDB69012BF9
:1006700000D10020D36A5BB39E794FF4405707EA5C
:100680000636064346F002005668B7895FEAC74C53
:1006900003D57F0501D440F4A0601B681860361DA7
:1006A0009E60DD605960D06A0068036843F0010312
:1006B00003605068838A43F04003838250688389D3
:1006C00043F010038381106BC068022805D00FE04F
:1006D0005068838943F03003F4E7506BC3693BB93A
:1006E0000223C361506B1A3000F006F8801C01D061
:1006F000002094E7204692E72DE9F04114460D468C
:10070000060008D03DB1206BC07A400706D44FF0F8
:10071000FF30BDE8F0816FF00400FAE7606B6FF026
:10072000010890F82110E9B9012280F82120606BBE
:100730008027C660606B4560616B00204861206B5C
:10074000C068022811D1606BC16911B102290BD0B8
:100750000BE0C261606B224629461830FFF754FF58
:10076000801C02D14046D4E70027A16A09B38879EA
:100770004FF44052636802EA003038439A8940F0EF
:100780001200D70403D5520501D440F4A0600A68D2
:1007900010601B1D9360D6605560A06A00680168F8
:1007A00041F0010101606068818A41F0800181822D
:1007B00004E06068818941F0800181810020A8E720
:1007C00010B501235C049A1E10B1012818D109E06C
:1007D000086B006908B1A04212D1886970B1016844
:1007E000007909E0086B006908B1A04208D1886966
:1007F00020B101680079103083400B61002010BDEA
:10080000104610BD816A09684B68426B51680BB194
:10081000002912D15161426B002182F821104168F8
:100820008A8942F040028A81006BC168022904D0A3
:100830000168002901D001200847704710B504461F
:10084000C06828B18188002300681A46FCF7BEFE04
:10085000206928B18188002300681A46FCF7B6FE9B
:10086000606928B18188002300681A46FCF7AEFE53
:10087000A06928B18188002300681A46FCF7A6FE0B
:10088000E06928B18188002300681A46FCF79EFEC3
:10089000208CFCF72DFE216B0020C87210BD0000DB
:1008A0000148006870470000E4A301081CB500205F
:1008B00001906A4601A90848FCF714FC40B10748BA
:1008C000DDE90021007840F0800002F0E9F91CBD6C
:1008D0000349012008701CBDE4470020BE9F0108A9
:1008E0009C03002038B5164D164C28886188421AA2
:1008F00015486168007801F015FE616880B2014416
:100900006160618801448AB2628029888A4206D285
:100910000F4B0E491B7831F8131081420FD96B46EB
:100920000C490D48FCF7AAFB002528B1207818B126
:100930000020FFF7BBFF257065800648606038BD6A
:10094000C49F01089C030020BF9F0108C09F0108AD
:10095000E703002032410020E447002010B50446A0
:10096000400702D50020FFF7BDFF200704D5BDE8F2
:1009700010400020FFF79ABF10BD00207047000014
:100980000348D0E90410081A02490988081A704778
:10099000A4030020B49F010870B50B4D0C4603461C
:1009A000D5E90C0188420BD9401A844200DD044687
:1009B00022461846FBF772FC686B2044686300E02F
:1009C0000024204670BD0000A403002000207047D2
:1009D0002DE9F041194F0C460646D7E90401401AAB
:1009E00017490988081A002802DC0020BDE8F081B8
:1009F000844200DD0446D7E90602002590420FD369
:100A0000104B021919448A420AD30D1A98462A46F5
:100A10003146FBF743FC2E44641B4046C7F8188060
:100A200034B122463146FBF739FCB8692044B8613D
:100A30003969601901443961D8E70000A403002036
:100A4000B49F0108B240002010B5054C6068002832
:100A500005D10120606000F005F80020606010BD45
:100A6000A40300202DE9F047244CA06800283ED0C4
:100A7000D4E90401421AE0684FF0000652EA00018E
:100A800037D021461E4FC969DFF87880DFF87890AB
:100A90001E4D7AB1A069814205D338888B1828444D
:100AA000834200D3421A99F8003038F8130090427C
:100AB00000DA02461648E660007840F0800002F056
:100AC000EFF8E1690144E1616269024462613B88D7
:100AD0002B448B4200D1E561216991420BD199F8F9
:100AE000002038F81210814205D10120E060BDE8F5
:100AF000F087A660FBE7E660F9E70000A4030020AA
:100B0000B49F0108B89F0108E7030020B24000200D
:100B1000B29F010810B50B4C206A18B1A06A401CA6
:100B2000A06210BD01202062606200F00DF800207C
:100B300060622062D4E90C018842F2D0401AFFF7CB
:100B400045FF10BDA403002010B5134C1348164BED
:100B5000216B0A1A12481B780088821A114830F853
:100B6000130082420EDB1148007801F0DBFC216BA0
:100B700008442063A06A00280CD0616A002909D1CA
:100B8000401E06E00120E062606A002802D0A06AF0
:100B9000401CA06210BD0000A4030020F240002011
:100BA000B69F0108B89F0108E7030020B39F010822
:100BB00010B50446400702D52046FFF7ABFF2007DB
:100BC00004D52046BDE81040FFF73EBF10BD70477A
:100BD000002070470020704710B50B4800F03CF82B
:100BE000002810D0084A0948116801700B0A4370A8
:100BF0000B0C8370090EC17011790171517941712B
:100C000091798171012010BDDC030020B03F0020EC
:100C10000E4810B5002141608160C1600C4A01613D
:100C2000C0E90512C0E9072141620A4A8162C0E9B0
:100C30000B124263018038304FF41652026001718A
:100C400041710821817100F015F810BDA403002046
:100C5000B2400020F240002005490A6802600A798B
:100C600082714A79427189790171012070470000CF
:100C70006C04002010B507F0B3FA03F0C3FF0120A5
:100C800010BD10B507F00CFB012010BD10B507F02A
:100C9000A1FB012010BD0000064902680A608279AC
:100CA0000A7142794A71007988710020C87108463A
:100CB00007F008BB6C04002010B510480024104950
:100CC00044608460C4600461C0E90541C0E9071460
:100CD00044620C498462C0E90B4141630480FFF720
:100CE000D0FF06484FF4165138300160047144714A
:100CF00008218171FFF7D0FF10BD0000A403002080
:100D0000B2400020F240002010B5FFF7D5FF10BD23
:100D100070B51948007800282DD0184C0025012600
:100D2000206A50B9D4E90C01884206D1144988429E
:100D300003D02163E56225626163A06A70B1206A15
:100D400060B9E06A50B92662FFF7FEFE2562D4E979
:100D50000C01884202D0401AFFF738FED4E90101A5
:100D6000084308D1D4E90401884204D06660A66033
:100D7000FFF778FE656070BDE5030020A403002046
:100D8000F240002070B505460D480068C1698847EB
:100D9000A0B90C4C35B104F0BDF82060002006F07D
:100DA0006FFF0BE004F0B6F82168401AB0F5967FAB
:100DB00001D3012000E0002003F02CFF012070BDD2
:100DC000709A0108680400200020704700207047D6
:100DD000024910B50880FFF759FF10BDA403002099
:100DE0000A4810B58278018862F31F41C27841EA4F
:100DF000026207490A6002790A7142794A71807970
:100E000088710846FFF748FF10BD0000B03F002082
:100E1000DC03002000B50346FCF7A2FA43F23001E0
:100E200018465DF804EBFCF7AFBA0000F0B5827825
:100E3000204D02F00F0316066F6881882C8802F09F
:100E40000F0207EB021204D5491C21F001011460C6
:100E500011E094603E2909D91F3121F01F014FF0A4
:100E6000FF3404EB411444F4004403E0491C21F036
:100E700001014C02D4602A880A442A80C07810F00C
:100E8000030006D0012807D0022808D003280AD181
:100E900007E04FF4007106E04FF4806103E00021A9
:100EA00001E04FF4C061044A194302EB8300C0F82B
:100EB000001CF0BD1003002000500040002802D1AB
:100EC0000149D020088070471003002000F0C8BA04
:100ED0000949CA1350B101200860002008600B1DA9
:100EE00018604FF4E0500860044803E003200860F5
:100EF0000248001D02607047405C0040100801403D
:100F000010B50B4C0B48A2880078824200D90246EB
:100F10001AB907490020143908718020216801F0AE
:100F2000BFFE216801442160A188081AA08010BD7D
:100F3000F80300209B9F010810B5064C0020A288F2
:100F4000216801F0EFFA216801442160A188081AA4
:100F5000A08010BDF803002070470021FCF714BAF0
:100F600043F22001FCF710BA2DE9F0476E4F04461A
:100F7000A7F1080580074FF00009A5F1140622D556
:100F800001F058FE3878C009FFF7E6FFF888A8801E
:100F90003878C0F3411121B101295AD002296FD10B
:100FA00065E07978DFF884810C2969D2DFE801F007
:100FB000060C6813681827682B31384601F0DAFBF5
:100FC0001FE0FFF79DFF67E0002005E001F042FE13
:100FD000D8F8000039E0012001F00AFCC0B3F5E7C1
:100FE00010F01F0F4CD1B878012140F08000307014
:100FF00000F07F0001F010FE01F02CFE4CE001F04B
:10100000B9FA28B3DDE710F01F0F39D146481B3875
:1010100012E001F03DFCD8B101F01CFE444813E0A1
:1010200000F01F0001282BD1707888B13879B17891
:10103000884225D23F4908442860C2E701F0ECFC11
:1010400030B101F007FE3C48006828B3804723E038
:1010500016E010F01F0013D0012811D100F004F9A0
:10106000D0B900F05DF9B8B900F0AEF807E010F0C3
:101070001F0F05D100F082F970B900F0C3F958B91B
:101080003878000603D4F88808B1002000E08020FA
:1010900001F0CCFDA5F80490600721D53878000652
:1010A0001CD4A888E0B1FFF747FFA888C0B93878FA
:1010B000C0F3411161B101290AD110F01F0007D01E
:1010C000012805D100F062F850B900F037F838B9BE
:1010D000802001F0ABFDA5F8049001E001F0C0FD17
:1010E000200712D53878000606D5A888317908433C
:1010F0000BD0FFF705FF08E03078010605D500F0BA
:101100007F003070002101F087FD600602D50020CD
:10111000FFF780FE200604D5BDE8F0478020FFF7EA
:1011200079BEBDE8F08700000004002024A001087B
:101130001CA00108FF02002020A0010810B51049E2
:10114000104A08791278904203D00F4A12789042E0
:1011500014D1487820B1022805D020280ED10AE009
:10116000FFF732FE02E04888FFF730FE30B101F0B1
:1011700071FD012010BDFFF733FEF7E7002010BD21
:1011800000040020640100206501002010B50B4917
:101190000B4A08791278904203D00A4A127890429A
:1011A00009D14878092806D100F00CFB18B101F0EC
:1011B00051FD012010BD002010BD000000040020E2
:1011C000680100206A01002070B52249224A08798E
:1011D0001278904203D0214A1278904237D11D48AC
:1011E00049781F4C1F4D408804291FD007DC79B176
:1011F00001290FD002290BD0032928D111E0202981
:1012000006D0212919D022291AD023291FD11AE06A
:101210002C6010E0FFF7DEFC05E02C60FFF770FEAD
:1012200009E0FFF7D5FC0028F7D110E0FFF7A5FB98
:101230000BE001F00FFD012070BDFFF7CDFCF2E7E0
:10124000FFF7C6FD01E0FFF79DFD0028F1D100206A
:1012500070BD000000040020640100206501002032
:10126000B03F0020F80300202DE9F041244E25492D
:1012700030790978884203D02349097888423CD1E3
:101280007078224C224D234F0C2836D2DFE800F034
:101290003506212C353535353516243100F0AEF9BB
:1012A00058B3F078012802D0032803D003E01A488D
:1012B000206000E02560FFF723FE12E0F0780228AE
:1012C00002D0032803D00CE01448206009E0256018
:1012D00007E000F07BF909E000F04EFA0BE001F0C6
:1012E000B9FC0120BDE8F08100F07EF928B127604B
:1012F000E1E700F05DFA0028F1D10020F2E70000FC
:1013000000040020680100206A010020F80300208A
:101310000C030020B03F0020F13F002032400020AD
:1013200010B51248124A0179127891421BD14278C5
:101330004188C088FE2A09D0FF2A14D199B990B9F2
:1013400001F040F878B101F085FC0AE059B90128B4
:1013500009D100F04FFD30B1074906480860FFF79A
:10136000CFFD012010BD002010BD000000040020B2
:1013700069010020B03F0020F803002070B51B4D2C
:101380001B4900266878097888422CD1A888022851
:1013900029D1184CAA7812B3002003E0217801B1BA
:1013A0000C44401C411C8A42F8D82078B0B103F0AC
:1013B00003FA0146E01CFAF7A3FF0F4A0126146066
:1013C0002078E98881420BD90C4990800978491E20
:1013D000084206D10A490120087002E0002602E016
:1013E0009180FFF78DFD304670BD000000040020A5
:1013F000BC9F0108C0020020F80300209B9F010849
:10140000E803002010B5104A1049002450780978EC
:10141000884217D19088072814D10E4B0C4801241C
:1014200018600189D2888A4209D90B4899800078CE
:10143000401E014204D109490120087000E09A8051
:10144000FFF75EFD204610BD00040020BD9F01088F
:1014500070010020F80300209B9F0108E803002092
:10146000074800214170C160016141614180818074
:101470008161C161C18001810162418170470000C9
:10148000080400202DE9F047494EB08871884A4F82
:10149000DFF820817D1C0024884216D3B069A0B9F2
:1014A0007461B480012339787A1C184607F046FA33
:1014B0007080708848B1776198F80000012801D8E1
:1014C000756102E07088401C708070884FF00109DF
:1014D000B0BBF06808B1F46032E0316981B398F8CC
:1014E000000001280DD83C70B48002237A1C002132
:1014F000012007F023FA7080708800B175613461B3
:101500001EE03D78C846202D00D3002508FA05F0DE
:10151000084218D0681CC1B23970B48002237A1C0A
:10152000012007F00BFA7080708818B1776170881D
:10153000401C7080306908FA05F820EA0800306124
:10154000708830B902E06D1CEDB2DCE7B0690028AC
:1015500029D07088B188DFF86880401A85B2174FAB
:1015600098F8000037F81000A84200D20546154848
:10157000007828B140F080002A46716901F090FBA4
:101580007069114928447061B088284480B2B080E5
:101590000988884209D298F8000037F81000A8425C
:1015A00003D1C6F81890BDE8F087B461FBE70000EE
:1015B00008040020A69F0108F03F0020A29F010818
:1015C000E70300209C9F0108A89F010803480449E5
:1015D0008078085C034908700120704700040020EF
:1015E0000A030020B03F002010B507F0A5F902491A
:1015F0000870012010BD0000B03F00200B4910B55D
:10160000C8780022012804D0022804D0032806D17B
:1016100003E0074A02E0002010BD064A521C897808
:10162000002307F08BF9012010BD0000000400200A
:10163000F03F00200B0300202DE9FC5F45480078B7
:1016400000287DD0444D042300262978B146481C4B
:1016500028704248007800EB400293405B1E0192E4
:10166000994202DB85F8009001263D4A002411884A
:10167000FF2901D2491C11803A4931F8100038493C
:1016800000900988884200D1012439490020DFF800
:10169000D8804FF0010BDFF8D4A091F800E045E0CE
:1016A000002276B11AF800105346FF2901D2491CD6
:1016B000195418F8001021B11AF800308B4200D3E9
:1016C0000122019918F8007002238B4007FA03F1F8
:1016D000009B994202DA0FB1012300E000233CB1E4
:1016E00033B1D5F810C00BFA00F141EA0C012961C1
:1016F0002049095C8F420ED01AF800708F4208D33F
:10170000D5F810C00BFA00F747EA0C072F6185F8EF
:10171000009008F800103AB123B92A690BFA00F1D9
:10172000114329610AF80090401CC0B27045B7D33C
:1017300014B10B49A1F800902869002808D000E0F6
:1017400006E06888002803D1BDE8FC5FFFF79ABE79
:10175000BDE8FC9FE503002008040020E70300200B
:10176000060300209E9F01080903002008030020B3
:10177000A69F01080A030020094809498078C97812
:1017800010B1084A815409E0084A0020064B12783B
:1017900002E01954401CC0B29042FAD301207047B5
:1017A00000040020090300200A030020A69F01086E
:1017B000034810B5807807F053F9012010BD0000F0
:1017C000000400200C4908B5C8780022012804D084
:1017D000022804D0032806D103E0002008BD074AF0
:1017E00000E0074A521C00230093CB88897807F059
:1017F00039F9012008BD000000040020314000201C
:101800000B0300202DE9F041EFF3108072B6DFF8F2
:10181000D8800022D8F8104080F31088C8F8102033
:10182000600507D501F08EF907F0D0F92F48006860
:1018300000B18047200505D501F01CFA2C4800684E
:1018400000B18047E00405D501F020FA294800687E
:1018500000B18047A00503D52748006800B1804744
:10186000264D600403D5296809B102208847244F1A
:10187000A00427D5296829B3012022E0EFF31083C3
:1018800072B620480B2250F82100491CB1FBF2F639
:1018900002FB161183F3108886B2050CC8F80810F5
:1018A000280604D557F8261009B1082088472804CF
:1018B00008D557F8261029B1280501D5022000E0E7
:1018C0000420884720040DD5EFF3108272B6D8E9C2
:1018D0000210814201D1012000E0002082F3108833
:1018E0000028CBD0BDE8F08110030020C89F01087C
:1018F000CC9F0108D09F0108D49F0108D89F010800
:10190000DC9F010874410020064810B5C16941F40C
:101910000001C161142001F067FA03494FF400404F
:10192000086010BD001002401408014070B500F0BE
:1019300005F900281CD00F4802220F4D027042709A
:101940000E4C03202A632870A068022803D9A4F152
:101950001F008260A2600A480649007840F08000BB
:1019600001F09EF9A068296B401AA0600120207345
:1019700070BD0000724000202C0400201B49002094
:10198000AA9F0108114910B50878022808D0032839
:1019900010D0042812D0052801D10020087010BDF5
:1019A0000B48C07B282801D0A828F8D1BDE81040FA
:1019B00000F064BABDE8104000F03CBD0548007876
:1019C00040F0800000F04EFDF4E700002C04002001
:1019D000FC480020AA9F0108204A10B5117869B37D
:1019E00001290ED01E48052900781BD007292BD0CD
:1019F00000F038FD1B4902200873BDE8104000F0DC
:101A000019BD18481F38C07B2A2803D02F2805D0BD
:101A1000AA2822D1BDE8104000F004BBBDE8104068
:101A200000F096BA012181400F480068014201D0C0
:101A3000012000E0002040F23F4200E009E0BDE864
:101A400010400AA101F085BA00201070106B1F2809
:101A500003D1BDE8104000F0D5B810BD2C04002023
:101A6000AB9F01081B490020F00300202E2E5C2EA6
:101A70002E5C2E2E5C736F757263655C7573625C91
:101A80006D73635C757362645F6D73632E630000D6
:101A9000104910B54868C86008B1012010BD0E4853
:101AA00000F11F0482687AB1007B000604D50B4860
:101AB000007840F0800005E0A068096B884203D000
:101AC0000748007800F0CEFC0120207300F0B2FC43
